:100000000C9435000C945D000C945D000C945D0024
:100010000C945D000C945D000C945D000C945D00EC
:100020000C945D000C945D000C945D000C945D00DC
:100030000C945D000C945D000C945D000C945D00CC
:100040000C94E7020C945D000C94B5020C948F02A2
:100050000C945D000C945D000C945D000C945D00AC
:100060000C945D000C945D00240511241FBECFEF9D
:10007000D8E0DEBFCDBF11E0A0E0B1E0E8E7FFE0EF
:1000800002C005900D92A435B107D9F722E0A4E58E
:10009000B1E001C01D92A631B207E1F710E0C5E35F
:1000A000D0E004C02197FE010E947305C433D1073C
:1000B000C9F70E9431030C94BA070C940000CF9248
:1000C000DF92EF92FF920F931F93CF93DF936C0118
:1000D0007A018B01C0E0D0E0CE15DF0589F0D801B0
:1000E0006D918D01D601ED91FC910190F081E02D93
:1000F000C6010995892B11F47E0102C02196ECCF2F
:10010000C701DF91CF911F910F91FF90EF90DF908A
:10011000CF900895FC01918D828D981761F0828DAA
:10012000DF01A80FB11D5D968C91928D9F5F9F732B
:10013000928F90E008958FEF9FEF0895FC01918DCD
:10014000828D981731F0828DE80FF11D858D90E03A
:1001500008958FEF9FEF0895FC01918D228D892FD7
:1001600090E0805C9F4F821B91098F7399270895BF
:1001700089E791E00E94AC0021E0892B09F420E09E
:10018000822F0895FC01848DDF01A80FB11DA35AB1
:10019000BF4F2C91848D90E001968F739927848FA7
:1001A000A689B7892C93A089B1898C9180648C939E
:1001B000938D848D981306C00288F389E02D808189
:1001C0008F7D80830895EF92FF920F931F93CF93BB
:1001D000DF93EC0181E0888F9B8D8C8D981305C097
:1001E000E889F989808185FD24C0F62E0B8D10E009
:1001F0000F5F1F4F0F731127E02E8C8DE8120CC07C
:100200000FB607FCFACFE889F989808185FFF5CF21
:10021000CE010E94C200F1CF8B8DFE01E80FF11DCF
:10022000E35AFF4FF0820B8FEA89FB89808180625D
:1002300007C0EE89FF896083E889F989808180643D
:10024000808381E090E0DF91CF911F910F91FF902B
:10025000EF900895CF93DF93EC01888D8823C9F048
:10026000EA89FB89808185FD05C0A889B9898C91BF
:1002700086FD0FC00FB607FCF5CF808185FFF2CF5A
:10028000A889B9898C9185FFEDCFCE010E94C2006B
:10029000E7CFDF91CF91089580E090E0892B29F09E
:1002A0000E94B80081110C94000008958E3008F06F
:1002B0008E508770806480937C0080917A00806487
:1002C00080937A0080917A0086FDFCCF809178003F
:1002D0002091790090E0922B0895009769F0FC013D
:1002E00001900020E9F73197AF01481B590BBC0181
:1002F00089E791E00C945F0080E090E008958F9290
:100300009F92AF92BF920F931F93CF93DF93CDB77E
:10031000DEB7A1970FB6F894DEBF0FBECDBF19A20E
:10032000423008F44AE08E010F5D1F4F842E912C5D
:10033000A12CB12CA50194010E945105E62FB90111
:10034000CA0101501109EA3014F4E05D01C0E95C12
:10035000D801EC93232B242B252B61F7C8010E9495
:100360006D01A1960FB6F894DEBF0FBECDBFDF9131
:10037000CF911F910F91BF90AF909F908F90089554
:100380008F929F92AF92BF92CF92DF92EF92FF92A5
:10039000CF93DF936B017C019B01AC010E94B007FE
:1003A000882319F080E191E027C046015701E894C5
:1003B000B7F82FEF3FEF4FE75FE7C501B4010E94A9
:1003C000B00781110DC02FEF3FEF4FE75FE7C50189
:1003D000B4010E94E60518161CF484E191E00CC0FB
:1003E0002FEF3FEF4FE75FE4C701B6010E943E07E2
:1003F000181674F488E191E0DF91CF91FF90EF90AF
:10040000DF90CF90BF90AF909F908F900C946D0134
:100410002FEF3FEF4FE75FECC701B6010E94E60503
:1004200087FDE8CF20E030E0A901C701B6010E94B6
:10043000E60587FF11C0E0917901F0917A01019002
:10044000F081E02D6DE289E791E00995EC01F7FA82
:10045000F094F7F8F09402C0C0E0D0E02AE037ED65
:1004600043EA5BE3C701B6010E947A054B015C01D8
:100470000E945D066B017C010E948C069B01AC0111
:10048000C501B4010E9479054B015C014AE0C70136
:10049000B6010E947F01C80FD91F8CE191E00E9434
:1004A0006D01C80FD91F20E030E040E251E4C501E2
:1004B000B4010E9443074B015C010E945D066B0181
:1004C000E12CF12C4AE0C701B6010E947F01C80F60
:1004D000D91FC701B6010E948C069B01AC01C50162
:1004E000B4010E94790520E030E040E251E40E942E
:1004F00043070E945D0680E090E04AE00E947F0191
:100500008C0F9D1FDF91CF91FF90EF90DF90CF90E8
:10051000BF90AF909F908F9008950E94B5071F9253
:100520000F920FB60F9211242F933F934F935F9327
:100530006F937F938F939F93AF93BF93EF93FF93AB
:1005400089E791E00E94C200FF91EF91BF91AF91C6
:100550009F918F917F916F915F914F913F912F91DB
:100560000F900FBE0F901F9018951F920F920FB60D
:100570000F9211242F938F939F93EF93FF93E0910A
:100580008901F0918A018081E0918F01F0919001C1
:1005900082FD12C09081809192018F5F8F732091B4
:1005A0009301821751F0E0919201F0E0E758FE4F7D
:1005B000958F8093920101C08081FF91EF919F916F
:1005C0008F912F910F900FBE0F901F9018951F9233
:1005D0000F920FB60F9211242F933F938F939F93F7
:1005E000AF93BF938091590190915A01A0915B0103
:1005F000B0915C013091580123E0230F2D3720F496
:100600000196A11DB11D05C026E8230F0296A11D6C
:10061000B11D209358018093590190935A01A093E2
:100620005B01B0935C018091540190915501A091C0
:100630005601B09157010196A11DB11D809354013F
:1006400090935501A0935601B0935701BF91AF917C
:100650009F918F913F912F910F900FBE0F901F9000
:100660001895CF93DF93CDB7DEB72C970FB6F894DC
:10067000DEBF0FBECDBF789484B5826084BD84B5E3
:10068000816084BD85B5826085BD85B5816085BD8D
:1006900080916E00816080936E0010928100809145
:1006A00081008260809381008091810081608093CD
:1006B0008100809180008160809380008091B100F2
:1006C00084608093B1008091B00081608093B0001D
:1006D00080917A00846080937A0080917A008260B1
:1006E00080937A0080917A00816080937A00809173
:1006F0007A00806880937A001092C100E0918901AD
:10070000F0918A0182E08083E0918501F091860179
:100710001082E0918701F09188018FEC8083109224
:100720009101E0918D01F0918E0186E08083E0914E
:100730008B01F0918C01808180618083E0918B013D
:10074000F0918C01808188608083E0918B01F09131
:100750008C01808180688083E0918B01F0918C0115
:1007600080818F7D80832FB7F8948091590190917B
:100770005A01A0915B01B0915C012FBF9093780169
:1007800080937701212C312C00E010E019861A8625
:100790001B861C86C12CD12C7601CD82DE82EF8295
:1007A000F886C982DA82EB82FC8280916D01909199
:1007B0006E012091770130917801821B930B883E66
:1007C00093400CF089C08FE00E945601BC01990F44
:1007D000880B990B0E948E064B015C01609373019C
:1007E0007093740180937501909376018EE00E945E
:1007F00056019250BC01990F880B990B0E948E06EE
:100800002B013C0160936F01709370018093710123
:100810009093720120E030E0A901C501B4010E946B
:10082000E605882309F441C020E030E040E85FE3BA
:10083000C701B6010E947A056B017C01A5019401F4
:1008400069817A818B819C810E947A0569837A8390
:100850008B839C8320E030E0A901C301B2010E9498
:100860003E07A301920118160CF050586D817E814D
:100870008F8198850E947A056D837E838F83988708
:10088000A3019201C501B4010E9443079B01AC0181
:1008900069857A858B859C850E947A0569877A8728
:1008A0008B879C87212C312C07C0232811F40F5FE4
:1008B0001F4F22242394312C2FB7F8948091590193
:1008C00090915A01A0915B01B0915C012FBF909370
:1008D0006E0180936D0169CF2BE734E14EE85FE351
:1008E0006D817E818F8198850E944307A7019601C3
:1008F0000E94EB0522E538EB46E551E40E94EB054A
:100900002B013C016093690170936A0180936B0134
:1009100090936C012BE734E14EE85FE369817A81C3
:100920008B819C810E944307A70196010E94EB05E1
:100930002BE734E14EE65FE30E94EB054B015C01DF
:1009400060936501709366018093670190936801DD
:1009500026EF38E24CE75FE369857A858B859C85D5
:100960000E944307A70196010E94EB052BE734E1A3
:100970004EE65FE30E94EB0522E538EB46E551E4E5
:100980000E94EB05609361017093620180936301A3
:1009900090936401A30192010E94EB05A5019401CB
:1009A0000E94EB0560935D0170935E0180935F018F
:1009B000909360018EE191E00E946D01609165016C
:1009C0007091660180916701909168010E94C00159
:1009D00085E291E00E946D016091690170916A0168
:1009E00080916B0190916C010E94C0018EE291E0B8
:1009F0000E946D01609161017091620180916301BB
:100A0000909164010E94C0018CE391E00E946D010D
:100A100060915D0170915E0180915F019091600134
:100A20000E94C00183E491E00E946D01B801110FA2
:100A3000880B990B4AE00E947F0181E591E00E94BA
:100A40006D010E944C018FCEE9E7F1E01382128222
:100A500088EE93E0A0E0B0E084839583A683B7831B
:100A600084E091E09183808385EC90E09587848792
:100A700084EC90E09787868780EC90E0918B808B68
:100A800081EC90E0938B828B82EC90E0958B848B51
:100A900086EC90E0978B868B118E128E138E148EBF
:100AA0000895A1E21A2EAA1BBB1BFD010DC0AA1FAF
:100AB000BB1FEE1FFF1FA217B307E407F50720F0C7
:100AC000A21BB30BE40BF50B661F771F881F991F42
:100AD0001A9469F760957095809590959B01AC018B
:100AE000BD01CF010895EE0FFF1F0590F491E02D99
:100AF00009945058BB27AA270E9491050C9404071B
:100B00000E94F60638F00E94FD0620F039F49F3F5F
:100B100019F426F40C94F3060EF4E095E7FB0C941C
:100B2000ED06E92F0E94150758F3BA1762077307FD
:100B30008407950720F079F4A6F50C9437070EF496
:100B4000E0950B2EBA2FA02D0B01B90190010C01DD
:100B5000CA01A0011124FF27591B99F0593F50F4F5
:100B6000503E68F11A16F040A22F232F342F44274D
:100B7000585FF3CF469537952795A795F040539545
:100B8000C9F77EF41F16BA0B620B730B840BBAF015
:100B90009150A1F0FF0FBB1F661F771F881FC2F780
:100BA0000EC0BA0F621F731F841F48F48795779594
:100BB0006795B795F7959E3F08F0B0CF9395880F4E
:100BC00008F09927EE0F9795879508950E94C9061A
:100BD00008F481E008950E94FF050C9404070E9428
:100BE000FD0658F00E94F60640F029F45F3F29F018
:100BF0000C94ED0651110C9438070C94F3060E94E6
:100C0000150768F39923B1F3552391F3951B550B01
:100C1000BB27AA2762177307840738F09F5F5F4FCF
:100C2000220F331F441FAA1FA9F335D00E2E3AF00E
:100C3000E0E832D091505040E695001CCAF72BD026
:100C4000FE2F29D0660F771F881FBB1F2617370777
:100C50004807AB07B0E809F0BB0B802DBF01FF27A9
:100C600093585F4F3AF09E3F510578F00C94ED0693
:100C70000C9438075F3FE4F3983ED4F3869577955C
:100C80006795B795F7959F5FC9F7880F911D969562
:100C9000879597F90895E1E0660F771F881FBB1FBE
:100CA000621773078407BA0720F0621B730B840B6B
:100CB000BA0BEE1F88F7E09508950E941D0788F093
:100CC0009F5798F0B92F9927B751B0F0E1F0660F10
:100CD000771F881F991F1AF0BA95C9F714C0B13051
:100CE00091F00E943707B1E008950C943707672F01
:100CF000782F8827B85F39F0B93FCCF38695779580
:100D00006795B395D9F73EF4909580957095619568
:100D10007F4F8F4F9F4F0895E89409C097FB3EF493
:100D200090958095709561957F4F8F4F9F4F992338
:100D3000A9F0F92F96E9BB279395F69587957795B6
:100D40006795B795F111F8CFFAF4BB0F11F460FF76
:100D50001BC06F5F7F4F8F4F9F4F16C0882311F0CE
:100D600096E911C0772321F09EE8872F762F05C0E2
:100D7000662371F096E8862F70E060E02AF09A957D
:100D8000660F771F881FDAF7880F9695879597F972
:100D90000895990F0008550FAA0BE0E8FEEF16160C
:100DA0001706E807F907C0F012161306E407F5075F
:100DB00098F0621B730B840B950B39F40A2661F0D3
:100DC000232B242B252B21F408950A2609F4A14076
:100DD000A6958FEF811D811D089597F99F6780E883
:100DE00070E060E008959FEF80EC089500240A947D
:100DF0001616170618060906089500240A941216F6
:100E00001306140605060895092E0394000C11F428
:100E1000882352F0BB0F40F4BF2B11F460FF04C0D5
:100E20006F5F7F4F8F4F9F4F089557FD9058440F2E
:100E3000551F59F05F3F71F04795880F97FB991F39
:100E400061F09F3F79F087950895121613061406F6
:100E5000551FF2CF4695F1DF08C016161706180683
:100E6000991FF1CF86957105610508940895E8945E
:100E7000BB2766277727CB0197F908950E94C906FB
:100E800008F48FEF08950E9456070C9404070E94FF
:100E9000F60638F00E94FD0620F0952311F00C9420
:100EA000ED060C94F30611240C9438070E941507E4
:100EB00070F3959FC1F3950F50E0551F629FF001AD
:100EC000729FBB27F00DB11D639FAA27F00DB11DC6
:100ED000AA1F649F6627B00DA11D661F829F22274F
:100EE000B00DA11D621F739FB00DA11D621F839FD6
:100EF000A00D611D221F749F3327A00D611D231FAC
:100F0000849F600D211D822F762F6A2F11249F57F9
:100F100050409AF0F1F088234AF0EE0FFF1FBB1FFC
:100F2000661F771F881F91505040A9F79E3F5105BB
:100F300080F00C94ED060C9438075F3FE4F3983E84
:100F4000D4F3869577956795B795F795E7959F5F65
:100F5000C1F7FE2B880F911D9695879597F90895F7
:100F60000E94C906880B990B089581E090E0F894DF
:080F70000C94BA07F894FFCFBE
:100F780000000000E3005F00AC008A009E002A0128
:100F88006E616E00696E66006F7666002E00726D87
:100F980073563A20002020726D73493A20002020B1
:100FA8005265616C506F7765723A20002020706638
:100FB8003A2000206672657175656E63793A202063
:040FC800000D0A000E
:107E0000112484B714BE81FFF0D085E080938100F7
:107E100082E08093C00088E18093C10086E0809377
:107E2000C20080E18093C4008EE0C9D0259A86E02C
:107E300020E33CEF91E0309385002093840096BBD3
:107E4000B09BFECF1D9AA8958150A9F7CC24DD24C4
:107E500088248394B5E0AB2EA1E19A2EF3E0BF2EE7
:107E6000A2D0813461F49FD0082FAFD0023811F036
:107E7000013811F484E001C083E08DD089C08234E0
:107E800011F484E103C0853419F485E0A6D080C0E4
:107E9000853579F488D0E82EFF2485D0082F10E0AE
:107EA000102F00270E291F29000F111F8ED06801E7
:107EB0006FC0863521F484E090D080E0DECF843638
:107EC00009F040C070D06FD0082F6DD080E0C81688
:107ED00080E7D80618F4F601B7BEE895C0E0D1E017
:107EE00062D089930C17E1F7F0E0CF16F0E7DF06D8
:107EF00018F0F601B7BEE89568D007B600FCFDCFD4
:107F0000A601A0E0B1E02C9130E011968C91119780
:107F100090E0982F8827822B932B1296FA010C0160
:107F200087BEE89511244E5F5F4FF1E0A038BF0790
:107F300051F7F601A7BEE89507B600FCFDCF97BE46
:107F4000E89526C08437B1F42ED02DD0F82E2BD052
:107F50003CD0F601EF2C8F010F5F1F4F84911BD097
:107F6000EA94F801C1F70894C11CD11CFA94CF0C13
:107F7000D11C0EC0853739F428D08EE10CD085E9AC
:107F80000AD08FE07ACF813511F488E018D01DD067
:107F900080E101D065CF982F8091C00085FFFCCF94
:107FA0009093C60008958091C00087FFFCCF809118
:107FB000C00084FD01C0A8958091C6000895E0E648
:107FC000F0E098E1908380830895EDDF803219F02E
:107FD00088E0F5DFFFCF84E1DECF1F93182FE3DFCA
:107FE0001150E9F7F2DF1F91089580E0E8DFEE27F6
:047FF000FF270994CA
:027FFE00040479
:0400000300007E007B
:00000001FF
