:100000000C9435000C945D000C945D000C945D0024
:100010000C945D000C945D000C945D000C945D00EC
:100020000C945D000C945D000C945D000C945D00DC
:100030000C945D000C945D000C945D000C945D00CC
:100040000C94E7020C945D000C94B5020C948F02A2
:100050000C945D000C945D000C945D000C945D00AC
:100060000C945D000C945D00530511241FBECFEF6E
:10007000D8E0DEBFCDBF11E0A0E0B1E0E6E2F0E104
:1000800002C005900D92AE35B107D9F722E0AEE57A
:10009000B1E001C01D92A032B207E1F710E0C5E364
:1000A000D0E004C02197FE010E94CA05C433D107E5
:1000B000C9F70E9431030C9411080C940000CF92F0
:1000C000DF92EF92FF920F931F93CF93DF936C0118
:1000D0007A018B01C0E0D0E0CE15DF0589F0D801B0
:1000E0006D918D01D601ED91FC910190F081E02D93
:1000F000C6010995892B11F47E0102C02196ECCF2F
:10010000C701DF91CF911F910F91FF90EF90DF908A
:10011000CF900895FC01918D828D981761F0828DAA
:10012000DF01A80FB11D5D968C91928D9F5F9F732B
:10013000928F90E008958FEF9FEF0895FC01918DCD
:10014000828D981731F0828DE80FF11D858D90E03A
:1001500008958FEF9FEF0895FC01918D228D892FD7
:1001600090E0805C9F4F821B91098F7399270895BF
:1001700083E891E00E94AC0021E0892B09F420E0A3
:10018000822F0895FC01848DDF01A80FB11DA35AB1
:10019000BF4F2C91848D90E001968F739927848FA7
:1001A000A689B7892C93A089B1898C9180648C939E
:1001B000938D848D981306C00288F389E02D808189
:1001C0008F7D80830895EF92FF920F931F93CF93BB
:1001D000DF93EC0181E0888F9B8D8C8D981305C097
:1001E000E889F989808185FD24C0F62E0B8D10E009
:1001F0000F5F1F4F0F731127E02E8C8DE8120CC07C
:100200000FB607FCFACFE889F989808185FFF5CF21
:10021000CE010E94C200F1CF8B8DFE01E80FF11DCF
:10022000E35AFF4FF0820B8FEA89FB89808180625D
:1002300007C0EE89FF896083E889F989808180643D
:10024000808381E090E0DF91CF911F910F91FF902B
:10025000EF900895CF93DF93EC01888D8823C9F048
:10026000EA89FB89808185FD05C0A889B9898C91BF
:1002700086FD0FC00FB607FCF5CF808185FFF2CF5A
:10028000A889B9898C9185FFEDCFCE010E94C2006B
:10029000E7CFDF91CF91089580E090E0892B29F09E
:1002A0000E94B80081110C94000008958E3008F06F
:1002B0008E508770806480937C0080917A00806487
:1002C00080937A0080917A0086FDFCCF809178003F
:1002D0002091790090E0922B0895009769F0FC013D
:1002E00001900020E9F73197AF01481B590BBC0181
:1002F00083E891E00C945F0080E090E008958F9295
:100300009F92AF92BF920F931F93CF93DF93CDB77E
:10031000DEB7A1970FB6F894DEBF0FBECDBF19A20E
:10032000423008F44AE08E010F5D1F4F842E912C5D
:10033000A12CB12CA50194010E949405E62FB901CE
:10034000CA0101501109EA3014F4E05D01C0E95C12
:10035000D801EC93232B242B252B61F7C8010E9495
:100360006D01A1960FB6F894DEBF0FBECDBFDF9131
:10037000CF911F910F91BF90AF909F908F90089554
:100380008F929F92AF92BF92CF92DF92EF92FF92A5
:10039000CF93DF936B017C019B01AC010E940708A6
:1003A000882319F080E191E027C046015701E894C5
:1003B000B7F82FEF3FEF4FE75FE7C501B4010E94A9
:1003C000070881110DC02FEF3FEF4FE75FE7C50131
:1003D000B4010E943D0618161CF484E191E00CC0A3
:1003E0002FEF3FEF4FE75FE4C701B6010E9495078B
:1003F000181674F488E191E0DF91CF91FF90EF90AF
:10040000DF90CF90BF90AF909F908F900C946D0134
:100410002FEF3FEF4FE75FECC701B6010E943D06AB
:1004200087FDE8CF20E030E0A901C701B6010E94B6
:100430003D0687FF11C0E0918301F0918401019096
:10044000F081E02D6DE283E891E00995EC01F7FA87
:10045000F094F7F8F09402C0C0E0D0E02AE037ED65
:1004600043EA5BE3C701B6010E94D1054B015C0181
:100470000E94B4066B017C010E94E3069B01AC0163
:10048000C501B4010E94D0054B015C014AE0C701DF
:10049000B6010E947F01C80FD91F8CE191E00E9434
:1004A0006D01C80FD91F20E030E040E251E4C501E2
:1004B000B4010E949A074B015C010E94B4066B01D3
:1004C000E12CF12C4AE0C701B6010E947F01C80F60
:1004D000D91FC701B6010E94E3069B01AC01C5010B
:1004E000B4010E94D00520E030E040E251E40E94D7
:1004F0009A070E94B40680E090E04AE00E947F01E3
:100500008C0F9D1FDF91CF91FF90EF90DF90CF90E8
:10051000BF90AF909F908F9008950E940C081F92FB
:100520000F920FB60F9211242F933F934F935F9327
:100530006F937F938F939F93AF93BF93EF93FF93AB
:1005400083E891E00E94C200FF91EF91BF91AF91CB
:100550009F918F917F916F915F914F913F912F91DB
:100560000F900FBE0F901F9018951F920F920FB60D
:100570000F9211242F938F939F93EF93FF93E0910A
:100580009301F09194018081E0919901F0919A0199
:1005900082FD12C0908180919C018F5F8F732091AA
:1005A0009D01821751F0E0919C01F0E0ED57FE4F64
:1005B000958F80939C0101C08081FF91EF919F9165
:1005C0008F912F910F900FBE0F901F9018951F9233
:1005D0000F920FB60F9211242F933F938F939F93F7
:1005E000AF93BF938091630190916401A0916501E5
:1005F000B09166013091620123E0230F2D3720F482
:100600000196A11DB11D05C026E8230F0296A11D6C
:10061000B11D209362018093630190936401A093C4
:100620006501B093660180915E0190915F01A09198
:100630006001B09161010196A11DB11D80935E0121
:1006400090935F01A0936001B0936101BF91AF915E
:100650009F918F913F912F910F900FBE0F901F9000
:100660001895CF93DF93CDB7DEB72E970FB6F894DA
:10067000DEBF0FBECDBF789484B5826084BD84B5E3
:10068000816084BD85B5826085BD85B5816085BD8D
:1006900080916E00816080936E0010928100809145
:1006A00081008260809381008091810081608093CD
:1006B0008100809180008160809380008091B100F2
:1006C00084608093B1008091B00081608093B0001D
:1006D00080917A00846080937A0080917A008260B1
:1006E00080937A0080917A00816080937A00809173
:1006F0007A00806880937A001092C100E0919301A3
:10070000F091940182E08083E0918F01F09190015B
:100710001082E0919101F09192018FEC8083109210
:100720009B01E0919701F091980186E08083E09130
:100730009501F0919601808180618083E09195011F
:10074000F0919601808188608083E0919501F0911D
:100750009601808180688083E0919501F0919601F7
:1007600080818F7D80838DE0282E312C2FB7F894E7
:100770008091630190916401A0916501B09166013F
:100780002FBF90938201809381011E861D8600E019
:1007900010E019861A861B861C86C12CD12C760186
:1007A000CD82DE82EF82F886C982DA82EB82FC8219
:1007B000809177019091780120918101309182019F
:1007C000821B930B883C92430CF091C08FE00E94F7
:1007D0005601BC01990F880B990B0E94E5064B014D
:1007E0005C0160937D0170937E0180937F01909303
:1007F00080018EE00E9456019250BC01990F880B37
:10080000990B0E94E5062B013C01609379017093DE
:100810007A0180937B0190937C0120E030E0A90174
:10082000C501B4010E943D06882309F441C020E0BF
:1008300030E040E85FE3C701B6010E94D1056B01DB
:100840007C01A501940169817A818B819C810E9440
:10085000D10569837A838B839C8320E030E0A901F2
:10086000C301B2010E949507A301920118160CF072
:1008700050586D817E818F8198850E94D1056D834E
:100880007E838F839887A3019201C501B4010E94E2
:100890009A079B01AC0169857A858B859C850E94AE
:1008A000D10569877A878B879C871E861D860FC036
:1008B0008D859E85892B39F40F5F1F4FE1E0F0E0B5
:1008C000FE87ED8704C081E090E09E878D872FB77B
:1008D000F8948091630190916401A0916501B091B9
:1008E00066012FBF909378018093770161CF2BE74A
:1008F00034E14EE85FE36D817E818F8198850E94AF
:100900009A07A70196010E94420622E538EB46E5C8
:1009100051E40E9442062B013C01609373017093E5
:10092000740180937501909376012BE734E14EE8D2
:100930005FE369817A818B819C810E949A07A7017C
:1009400096010E9442062BE734E14EE65FE30E94E7
:1009500042064B015C0160936F01709370018093BC
:1009600071019093720126EF38E24CE75FE36985ED
:100970007A858B859C850E949A07A70196010E9423
:1009800042062BE734E14EE65FE30E94420622E591
:1009900038EB46E551E40E94420660936B01709388
:1009A0006C0180936D0190936E01A30192010E94EE
:1009B0004206A50194010E9442066093670170936C
:1009C00068018093690190936A018EE191E00E9431
:1009D0006D0160916F017091700180917101909132
:1009E00072010E94C00185E291E00E946D01609158
:1009F00073017091740180917501909176010E944C
:100A0000C0018EE291E00E946D0160916B017091D6
:100A10006C0180916D0190916E010E94C0018CE388
:100A200091E00E946D016091670170916801809171
:100A3000690190916A010E94C00183E491E00E94E3
:100A40006D01C801B1010E9480054B01770FAA0812
:100A5000BB08B7FE14C0E0918301F09184010190BE
:100A6000F081E02D6DE283E891E009956627772714
:100A7000CB01681979098A099B094AE003C04AE059
:100A8000C501B4010E947F0181E591E00E946D01E2
:100A9000C701B6010E94C0018BE591E00E946D0183
:100AA0000E944C0163CEE3E8F1E01382128288EEEB
:100AB00093E0A0E0B0E084839583A683B78384E0CD
:100AC00091E09183808385EC90E09587848784EC26
:100AD00090E09787868780EC90E0918B808B81EC0B
:100AE00090E0938B828B82EC90E0958B848B86ECEC
:100AF00090E0978B868B118E128E138E148E089534
:100B000097FB072E16F4009407D077FD09D00E94BA
:100B1000B60507FC05D03EF4909581959F4F08954A
:100B2000709561957F4F0895A1E21A2EAA1BBB1BF9
:100B3000FD010DC0AA1FBB1FEE1FFF1FA217B307A9
:100B4000E407F50720F0A21BB30BE40BF50B661FBF
:100B5000771F881F991F1A9469F760957095809583
:100B600090959B01AC01BD01CF010895AA1BBB1B51
:100B700051E107C0AA1FBB1FA617B70710F0A61B9D
:100B8000B70B881F991F5A95A9F780959095BC01BE
:100B9000CD010895EE0FFF1F0590F491E02D09940B
:100BA0005058BB27AA270E94E8050C945B070E94B7
:100BB0004D0738F00E94540720F039F49F3F19F494
:100BC00026F40C944A070EF4E095E7FB0C944407D6
:100BD000E92F0E946C0758F3BA176207730784075E
:100BE000950720F079F4A6F50C948E070EF4E095A5
:100BF0000B2EBA2FA02D0B01B90190010C01CA01D7
:100C0000A0011124FF27591B99F0593F50F4503E81
:100C100068F11A16F040A22F232F342F4427585F73
:100C2000F3CF469537952795A795F0405395C9F78B
:100C30007EF41F16BA0B620B730B840BBAF0915043
:100C4000A1F0FF0FBB1F661F771F881FC2F70EC0E2
:100C5000BA0F621F731F841F48F4879577956795B5
:100C6000B795F7959E3F08F0B0CF9395880F08F0A1
:100C70009927EE0F9795879508950E94200708F40D
:100C800081E008950E9456060C945B070E94540769
:100C900058F00E944D0740F029F45F3F29F00C9472
:100CA000440751110C948F070C944A070E946C075B
:100CB00068F39923B1F3552391F3951B550BBB278B
:100CC000AA2762177307840738F09F5F5F4F220FD0
:100CD000331F441FAA1FA9F335D00E2E3AF0E0E8C7
:100CE00032D091505040E695001CCAF72BD0FE2F11
:100CF00029D0660F771F881FBB1F261737074807A5
:100D0000AB07B0E809F0BB0B802DBF01FF2793585C
:100D10005F4F3AF09E3F510578F00C9444070C94D5
:100D20008F075F3FE4F3983ED4F3869577956795F8
:100D3000B795F7959F5FC9F7880F911D9695879591
:100D400097F90895E1E0660F771F881FBB1F6217B0
:100D500073078407BA0720F0621B730B840BBA0B6E
:100D6000EE1F88F7E09508950E94740788F09F575A
:100D700098F0B92F9927B751B0F0E1F0660F771FBF
:100D8000881F991F1AF0BA95C9F714C0B13091F0B5
:100D90000E948E07B1E008950C948E07672F782F7C
:100DA0008827B85F39F0B93FCCF38695779567957A
:100DB000B395D9F73EF490958095709561957F4FE6
:100DC0008F4F9F4F0895E89409C097FB3EF490958C
:100DD0008095709561957F4F8F4F9F4F9923A9F014
:100DE000F92F96E9BB279395F695879577956795A3
:100DF000B795F111F8CFFAF4BB0F11F460FF1BC0E7
:100E00006F5F7F4F8F4F9F4F16C0882311F096E979
:100E100011C0772321F09EE8872F762F05C0662327
:100E200071F096E8862F70E060E02AF09A95660FE0
:100E3000771F881FDAF7880F9695879597F9089599
:100E4000990F0008550FAA0BE0E8FEEF16161706DB
:100E5000E807F907C0F012161306E407F50798F043
:100E6000621B730B840B950B39F40A2661F0232B5C
:100E7000242B252B21F408950A2609F4A140A695D8
:100E80008FEF811D811D089597F99F6780E870E0BD
:100E900060E008959FEF80EC089500240A941616F0
:100EA000170618060906089500240A941216130658
:100EB000140605060895092E0394000C11F48823E6
:100EC00052F0BB0F40F4BF2B11F460FF04C06F5F02
:100ED0007F4F8F4F9F4F089557FD9058440F551FD8
:100EE00059F05F3F71F04795880F97FB991F61F0AC
:100EF0009F3F79F087950895121613061406551F23
:100F0000F2CF4695F1DF08C0161617061806991F8E
:100F1000F1CF86957105610508940895E894BB2783
:100F200066277727CB0197F908950E94200708F4D8
:100F30008FEF08950E94AD070C945B070E944D0748
:100F400038F00E94540720F0952311F00C944407C8
:100F50000C944A0711240C948F070E946C0770F3BD
:100F6000959FC1F3950F50E0551F629FF001729F4E
:100F7000BB27F00DB11D639FAA27F00DB11DAA1F5D
:100F8000649F6627B00DA11D661F829F2227B00DAA
:100F9000A11D621F739FB00DA11D621F839FA00D35
:100FA000611D221F749F3327A00D611D231F849F85
:100FB000600D211D822F762F6A2F11249F575040DC
:100FC0009AF0F1F088234AF0EE0FFF1FBB1F661F57
:100FD000771F881F91505040A9F79E3F510580F020
:100FE0000C9444070C948F075F3FE4F3983ED4F3CE
:100FF000869577956795B795F795E7959F5FC1F7C4
:10100000FE2B880F911D9695879597F908950E945C
:101010002007880B990B089581E090E0F8940C94D8
:061020001108F894FFCF57
:1010260000000000E3005F00AC008A009E002A0179
:101036006E616E00696E66006F7666002E00726DD8
:1010460073563A20002020726D73493A2000202002
:101056005265616C506F7765723A20002020706689
:101066003A2000206672657175656E63793A2020B4
:0E1076000020206E756D53616D3A000D0A006A
:00000001FF
